:020000040800F2
:10000000D0060020650100088B0100088D01000862
:1000100000000000000000000000000000000000E0
:100020000000000000000000000000008F01000838
:10003000000000000000000091010008930100088A
:100040009501000895010008950100089501000838
:100050009501000895010008950100089501000828
:100060009501000895010008950100089501000818
:100070009501000895010008950100082915000860
:100080009501000800000000000000009501000834
:100090000000000095010008051500089501000802
:1000A0000000000095010008950100089501000876
:1000B0009501000800000000950100089501000866
:1000C00000F002F800F03EF80CA030C80838241800
:1000D0002D18A246671EAB4654465D46AC4201D180
:1000E00000F030F87E460F3E0FCCB6460126334274
:1000F00000D0FB1AA246AB46334318473028000015
:1001000050280000103A02D378C878C1FAD85207B4
:1001100001D330C830C101D504680C6070470000BD
:100120000023002400250026103A01D378C1FBD813
:10013000520700D330C100D50B6070471FB51FBDFB
:1001400010B510BD00F0CCFE1146FFF7F7FF01F02F
:100150004BFD00F0E4FE03B4FFF7F2FF03BC00F038
:1001600015FF00000F4880F308880F480168090E4A
:100170000E4A914205D10E480E4901600E480F49C2
:1001800001600F4880470F480047FEE7FEE7FEE7A3
:10019000FEE7FEE7FEE700000B480C490C4A0D4B5A
:1001A00070470000D0060020040000001F0000007F
:1001B0001810024001000000000001400000000093
:1001C00091140008C1000008D0000020D0060020D3
:1001D000D0020020D0020020002203098B422CD341
:1001E000030A8B4211D300239C464EE003460B4387
:1001F0003CD4002243088B4231D303098B421CD3E9
:10020000030A8B4201D394463FE0C3098B4201D3DA
:10021000CB01C01A524183098B4201D38B01C01A12
:10022000524143098B4201D34B01C01A5241030989
:100230008B4201D30B01C01A5241C3088B4201D338
:10024000CB00C01A524183088B4201D38B00C01AE5
:10025000524143088B4201D34B00C01A5241411A0C
:1002600000D201465241104670475DE0CA0F00D0EF
:100270004942031000D34042534000229C460309E8
:100280008B422DD3030A8B4212D3FC22890112BA6E
:10029000030A8B420CD3890192118B4208D3890146
:1002A00092118B4204D389013AD0921100E089095E
:1002B000C3098B4201D3CB01C01A524183098B423F
:1002C00001D38B01C01A524143098B4201D34B0128
:1002D000C01A524103098B4201D30B01C01A52418B
:1002E000C3088B4201D3CB00C01A524183088B4212
:1002F00001D38B00C01A5241D9D243088B4201D39B
:100300004B00C01A5241411A00D201466346524185
:100310005B10104601D34042002B00D54942704784
:1003200063465B1000D3404201B50020C046C04682
:1003300002BD7047704770470246C80FC00781432F
:100340004B0030B54B405B009B0D20D01923DB06E2
:10035000C91801231B05994220DB0324A4070425A7
:100360001346AB400BD3002B04D1EB0613409B008C
:10037000E34204D401246407002312195941FF23E6
:100380001B0599420BD2C9000143500F09E0CB0273
:1003900004D501430803024305D0054830BDFF21C1
:1003A000C905084330BD084607210905884330BD0B
:1003B0000000C07FF0B50C46871A9C410D46861A96
:1003C0009D4103D2C01BA141D21963410D0D1F0DE8
:1003D000C94EEC1BAE435CD07F057F0D0026002F7D
:1003E00051D02D05AC46A943DD020123ED0A1B05C2
:1003F0001D4320231B1B24D41746E74038187141A6
:100400002F46E740CC199D402818314661410C0D1C
:1004100027D161449A4013D50023401C5941520012
:100420000ED14008400001224B005205D34207D3B1
:1004300005204007C14201D5B04900E0B04930462F
:10044000F0BD6B00002A00D001229A181F23203C27
:100450001B1B01D5002302E0E540281871410C0D5B
:10046000D7D0012424050919C407CD07400849083D
:10047000E40F28436144002CD5D00024401C614186
:100480009A40D0D1CDE76A05520DD9D1C90FC9071D
:10049000D5E79C4D4E00002801D0012400E0002447
:1004A00034195F00002A01D0012600E00026BE19A1
:1004B000954FAC420CD8AE420AD8B44206D00125C2
:1004C0006D05EC42BCD010461946F0BD9942FCD0F7
:1004D00000203946F0BDF0B51FB40C460F46811A16
:1004E0009F412546861A9D4106D20125ED076F40A2
:1004F000401ABC4152187B41210D1E0D8D1BAC468C
:100500007D4D8D437ED075056D0D7CD00D05AE46BD
:10051000AC431B031B0B794D52429D412023664681
:100520009B1B14D31746F7403818002600907441DF
:1005300060462F460741E41900989D4028186641FF
:1005400016D4714671189A4025D5012320E09318DE
:100550002A466A415200002B00D0521C1E23203E26
:100560009B1B002B61DD3541EE1728186641E8D54D
:10057000001876415B1C9A4000D3401C4B05F318D1
:100580001524E34010D3002B52D071467118D30FBD
:10059000C01802D3491C05B0F0BD0123DB079A4205
:1005A000F9D140084000F6E701225205B21801D106
:1005B000002853D00123CC0ADB029943891E002A6C
:1005C00008D1020C03D0020C0004103902E00246EC
:1005D000002020390023550B05D112020823550BAA
:1005E00001D152010D23550C01D112011B1DD50C57
:1005F00001D192009B1C150D01D152005B1C2025DE
:10060000EE1A01E02CE022E00546F5401543984043
:10061000CA1AE10769181305C918002ABBDA0320B2
:1006200040070818C10FC9070FE071466118B2E70B
:10063000F10740080843711071444A000CD00123AF
:100640005B059A42A7D2C90FC9070020A3E7490555
:10065000490D26D1002001E00028F4D100219AE7BD
:10066000284D6600002801D0012100E0002171180A
:100670005F00002A01D0012600E00026BE19224FAB
:10068000A94210D8AE420ED8B14208D001256D055E
:10069000E94206D01946A802414010467BE79C4239
:1006A00001D0214677E70020394674E710B50C46A3
:1006B0005C4005D50124E4076340FFF70CFF10BD43
:1006C000FFF778FE10BD30B40C465C4004D5012421
:1006D000E407634030BC6DE630BCFCE670B5012435
:1006E000E40761400D465D4002D4FFF763FE70BD34
:1006F0006340FFF7F0FE70BDFF0700000000F0FF51
:100700000000F07F0000E0FF0000F87FF0B5F94D39
:100710000C091E092C402E402F468BB0A7437DD0DC
:10072000B543FCD0002E7AD0002CFCD00D465D40A5
:10073000ED0F2543AC1BFF25AD0464190894C502D9
:10074000440DC9022143500DDC0204430120C007BF
:1007500001430443D2020191200C110C00958C46F8
:10076000010423468B430A9161460904E24D8A4302
:100770000991010A7D4449198039097805464D439C
:1007800001266D18F605751B6943C90C640B891C9D
:100790004C436418B5012C1B250C2E04B4434C4368
:1007A0004D43210C691889090591009DE90701D085
:1007B0000121C90704912C4601996708CD072F43F1
:1007C0004C08059DE10B4D432D0C294666467543AB
:1007D00002950D4645432E46029D7D1BB441009572
:1007E0000D465D4301942C0C2F040D465543AE4637
:1007F0002D0C3D43029503947546049C2D04641B07
:10080000049406D2029C039D641C00267541039546
:10081000029401AC70CC009F7D1B01E03EE162E1DF
:10082000B44109040095079101940599A408614316
:10083000090C0C464443650BE7040C4666467443BA
:10084000A646640B3C43039502947446049DE4045D
:100850002C1B049406D2029C039D641C0026754147
:100860000395029401AC70CC009F7D1BB4410194B0
:100870000C465C430095650FE7000C465443A646C2
:10088000640F3C43039502947446049DE4002C1BC2
:10089000049406D2029C039D641C002675410395B6
:1008A000029401AC70CC009F7D1BB441AE09AF0631
:1008B000049DC900AD092F43049DA406AD0604950F
:1008C000079D344369180791059DE10B4D432D0C9D
:1008D00029466646754302950D4645432E46029DC0
:1008E0007D1BB44100950D465D4301942C0C2F04F3
:1008F0000D465543AE462D0C3D4302950394754677
:10090000049C2D04641B049406D2029C039D641C69
:10091000002675410395029401AC70CC009F7D1BAD
:10092000B44101948C050694079C890A61180095CE
:100930000791019C0599A4086143090C0D464543A4
:10094000680BEF040D46644665436C0B3C43049F03
:10095000ED047D1BAC4602D20025641C6841009E5C
:10096000019D371B85410846584301950C46460FAB
:10097000C5005443600F28436546E4002C1B02D297
:100980000025401C6E41019D3F1AB5412846BD0916
:10099000800628438446A009BF064E020699A40695
:1009A00076180743079D002068410A99079019436C
:1009B0000020099B00906046FF1913434041E20F5D
:1009C00064003A43A4460446D71A8C41A04203D996
:1009D0000120009020463A46C70F941840416246D5
:1009E000D20F2243644664000494009CBE46640017
:1009F000D71AA446044602978C417746002F01D1AE
:100A0000A04204D96046401C8446029A2046C40F86
:100A1000A64694184041049A0546D20F22436446E4
:100A20006400D31A8D417146002901D1A84202D930
:100A300028461A46641C10430122002800D01643A1
:100A400061020020079B891904465C410223002CA7
:100A500002DB491813466441089DCE0A2D145D1926
:100A60004B056705E10A2C050D1908993E43C90796
:100A70006940002B08D0934006D30022761C5141D8
:100A8000002B01D1760876001C4A002D43DB15426D
:100A900041D0AA433FD030460BB0F0BD06180D46FA
:100AA0004D41174C7642AC411AD395181C465C4117
:100AB000134A6D42A24113D3012252054C00D44285
:100AC0000AD15C00D4420BD04B4002D592021143B4
:100AD000E2E749004908DFE75940C90FC90718E0B4
:100AE00000200849D8E7054801420DD10342F7D05C
:100AF000F2E700000000FF07322100000000F07F55
:100B00000000E0FF0000F87F114859400143C01287
:100B100041400020C0E70123089A9B069A4205DC69
:100B2000032252078918C90FC907B5E705225207E2
:100B30008918074A1143D2125140ADE770B51546E6
:100B40001C4602460B4628462146FFF7DFFD70BDD6
:100B5000FFFFFF7F30B50346CA02400D1043164D1C
:100B6000164C0A1502D02043002A06DBAA1A002AD6
:100B700012DDD040FF2A0BDC30BD5205520D01D1F1
:100B800040004008AA1A07D4D0404042FF2A01DDA5
:100B9000002030BD0028FCDD4A00002B01D00120E0
:100BA00000E00020101801225205D042F0D8C817EA
:100BB000C043604030BD00001E0400000000008003
:100BC0001F22030C02D10F22000402D0030E03D017
:100BD00004E00020014670470002083A030F01D1EB
:100BE0000001121F830F01D18000921E002801DB3B
:100BF0004000521E120551184205C01241181046FD
:100C00007047C10FC90700D040420122920711432B
:100C1000D6E701218907D3E70121C905012341183E
:100C200042001B06D3185B0E0AD0C1100722D20661
:100C3000891840075242D14201D5520089187047A5
:100C4000090208D50146002A03D0C10FC9070020B8
:100C5000704710467047420202D000200249704798
:100C6000072109050143F4E70000F87F10B50146AC
:100C70009E240002CA15A307002A02D01843002AA6
:100C800004DBA21A002A0CDDD04010BD1206120EA1
:100C900001D140004008A21A03D4D04040420028AD
:100CA000F3DDFF2248001206904201D9002010BD5A
:100CB000C817C043584010BD1F22030C02D10F2299
:100CC00000041CD0030E01D10002083A030F01D129
:100CD0000001121F830F01D18000921E002801DB4A
:100CE0004000521ED205511802125118192290408C
:100CF00004D3491C002801D149084900084670471F
:100D0000C10FC90700D04042012292071143D3E727
:100D100001218907D0E710B500F0BAF8006810BDCE
:100D200010B5044600F0B4F8046010BDF0B53D4BBA
:100D300002460C461C400020002C63D03A4D8B43E9
:100D400066D000296BDB0B0D1D05A94301252D0580
:100D500029430124FD33E34001D392184941FF3375
:100D600081339C468B02940D0121234389074C4219
:100D7000920200271B198C105D1A04D42D1B02D47B
:100D80002B466500491992185B416408F4D15C1A3E
:100D900008D40125ED07EE175519744102D42A46EF
:100DA0002346491C94185B41012292071D46E61B0D
:100DB0008D4106D4B61A854103D42B4655003446DE
:100DC0007F1924195B415208802AEFD1234300D0B8
:100DD000022338460A22D04001D3012213438A0558
:100DE00010436246890A12058918002B09D0012296
:100DF000D34002D30022401C5141002B01D14008B6
:100E00004000F0BD0B03134307D0C90FC907F0BD65
:100E10000803104303D1002901DB1046F0BD002078
:100E20002946F0BD0000F07F0000F87F10B5FF23D9
:100E30001B0644009C421DD84C009C421AD8034615
:100E4000124A0B4307D4401A02D3EFF3008010BDBF
:100E5000EFF3008010BD081A06D2EFF300800121E5
:100E60009043C907084302E0EFF30080904380F30A
:100E7000008810BD0D231B041A4204D01146002027
:100E800000F00AF810BD00F01FF810BD000000903F
:100E90000048704770000020C80212D54803400F78
:100EA000002804D0C803C043012188407047EFF3F5
:100EB00000800001000903210907084380F300882E
:100EC000704700207047000010B5024800F02FF86E
:100ED00010BD00000000C07F004870477000002077
:100EE0007546FFF7F9FFAE46050069465346C00850
:100EF000C000854618B020B5FFF74EF960BC00274A
:100F00004908B6460026C0C5C0C5C0C5C0C5C0C5D5
:100F1000C0C5C0C5C0C5403D49008D46704710B52D
:100F20000446C046C0462046FFF715F910BD10B56F
:100F30000C461107090F092904D00A290AD00829EB
:100F40000CD104E011460820FFF7A6FF06E0510689
:100F500006D501E0510601D50120C007214610BD8C
:100F6000D10607D501010909CC084907000E000682
:100F7000044309E0410F20024907000A0143200E03
:100F800000061D22D14101430846E7E70149182028
:100F9000ABBEFEE726000200704710B50446802075
:100FA00000F048F8204600F045F810BD00BF0D489D
:100FB00080690121C90308400028F8D10948406828
:100FC00009490840074948600846406807490843FE
:100FD0000449486000BF0348806940210840002858
:100FE000F9D17047005400400078FFFF7820FF00DF
:100FF00010B500BF012000F0DBFA012148400C4988
:10100000896908400028F5D1094840680121890311
:1010100008430749486000BF05488069202108400F
:101020000028F9D00248C06908430149C86110BDD1
:101030000054004010B5044600BF012000F0B8FA8B
:101040000749896908400028F7D00548846200BF35
:1010500003488069402108400028F9D110BD0000F4
:1010600000540040F8B507460D46FFF79FFF4020AB
:10107000FFF7E0FF00241DE03846203881004018CB
:1010800000190F490E5C002D04D0F143C8B2FFF7E0
:10109000D1FF02E03046FFF7CDFF042C08D1002D30
:1010A00003D0FF20FFF7C6FF02E00020FFF7C2FFDA
:1010B000601CC4B2052CDFDBFFF79AFFF8BD00000F
:1010C0004A24000870B5002417E0FFF76FFF2020C6
:1010D000FFF763FF0020FFF760FF4020FFF7AAFF44
:1010E000002504E00020FFF7A5FF681CC5B2802D95
:1010F000F8DBFFF77DFF601CC4B2082CE5DB70BD98
:1011000070B504460D46FFF751FF0F2C06DD211187
:10111000102211430846FFF740FF02E01020FFF7BE
:101120003CFF2007000FFFF738FFB0212943084696
:10113000FFF733FFFFF75CFF70BD000010B5FFF74E
:1011400035FFAE20FFF729FF002405E00549085DC3
:10115000FFF723FF601CC4B2122CF7D9FFF748FF3A
:1011600010BD000038240008F3B585B00646012400
:10117000002700200190002E01DB354602E0754279
:101180000120019000BF0A2D0ED30A212846FFF747
:1011900023F80F463846303002A908550A21284660
:1011A000FFF71AF8054604E02846303002A9085532
:1011B0000025601CC4B2002DE5D10198002803D0A1
:1011C0002D2002A9085501E0601EC4B200BF02A98B
:1011D000085D0699FFF746FF601EC4B2002CF6D1E9
:1011E00007B0F0BDF3B585B0064601240027002006
:1011F0000190002E01DB354602E07542012001908E
:1012000000BF102D0ED32F073F0F0A2F04DA3846E8
:10121000303002A9085503E03846373002A9085596
:101220002D090BE00A2D04D22846303002A90855BA
:1012300003E02846373002A908550025601CC4B2D7
:10124000002DDED10198002803D02D2002A90855D9
:1012500001E0601EC4B200BF02A9085D0699FFF755
:1012600001FF601EC4B2002CF6D107B0F0BD70B50E
:1012700004460D4604E020782946FFF7F3FE641C7F
:1012800020780028F7D170BD30B505460C46287E81
:1012900000280BD1012C04D180211F2000F014FF65
:1012A0000FE000211F2000F00FFF0AE0012C04D105
:1012B00080211F2000F0A2F803E000211F2000F091
:1012C0009DF830BD01460922D206926A10231A43C6
:1012D0000923DB069A6200BF1E4A926802231A4065
:1012E000002AF9D080220A431A4B1A7300BF194A08
:1012F000926880231A40002AF9D100BF154A9268EB
:10130000D207D20F002AF9D0124A117B00BF114A2E
:10131000926802231A40002AF9D000220D4B1A735A
:1013200000BF0C4A926880231A40002AF9D100BFFE
:10133000084A9268D207D20F002AF9D0054A107BDA
:101340000922D206926910231A430923DB069A6107
:10135000704700000030014030B503460924E40620
:10136000A46A10252C430925ED06AC6200BF224C6F
:10137000A46802252C40002CF9D0C0241C431E4D2B
:101380002C7300BF1C4CA46880252C40002CF9D184
:1013900000BF194CA468E407E40F002CF9D0164CE8
:1013A000207B1BE000BF144CA46802252C40002CBD
:1013B000F9D00024104D2C7300BF0F4CA468802579
:1013C0002C40002CF9D100BF0B4CA468E407E40FBB
:1013D000002CF9D0084C247B0C70491C1446551E77
:1013E000EAB2002CDEDC0924E406A46910252C43B3
:1013F0000925ED06AC6130BD0030014010B5024654
:101400000923DB069B6A102423430924E406A36214
:1014100000BF1E4B9B6802242340002BF9D093068B
:101420009B0E1A4C237300BF184B9B6880242340EB
:10143000002BF9D100BF154B9B68DB07DB0F002B9E
:10144000F9D0124B187B00BF104B9B68022423403D
:10145000002BF9D00D4B197300BF0C4B9B688024F7
:101460002340002BF9D100BF084B9B68DB07DB0F43
:10147000002BF9D0054B187B0923DB069B69102450
:1014800023430924E406A36110BD0000003001409D
:101490001948006801210843174908600846406858
:1014A0001649084014494860084600681449084035
:1014B00011490860084600680121890488430E49E3
:1014C0000860084640683F21090488430A4948608B
:1014D0000846C06A00090001C8620846006BFF2187
:1014E000D4318843044908630846406B40084000F3
:1014F0004863002088607047001002400CB8FF0865
:10150000FFFFF6FE00B507480069C007C00F0028BE
:1015100007D000F00DF80348006940084000014979
:10152000086100BD00480140012080070069704744
:1015300019480088002804D017480088401E164922
:1015400008801648008800280ED1FF20F530134986
:1015500008801348406901214840114948611148F9
:101560000088401C0F4908800F480088002807D1D8
:1015700064200D4908800D480088401C0B490880F4
:1015800006480088401E0549088007480088401E1C
:101590000549088070470000040000200600002074
:1015A000000400480C000020080000200A00002071
:1015B0000146104A00BF1048806931231B011840C2
:1015C000002803D11046521E00280BD16320C00012
:1015D000094BD8611846806901231843064B98616E
:1015E000002070470448806908400028E3D00120AB
:1015F000F7E70000102700000054004010B5002855
:1016000019DB1A4A03231B02D21883089B00D25805
:101610008307DC0EFF23A3409A438B071B0E84072E
:10162000E40EA3401A43114B032424021B1984081F
:10163000A4001A5118E00E4A03071B0F083B9B0831
:101640009B00D2588307DC0EFF23A3409A438B07ED
:101650001B0E8407E40EA3401A43054B0407240F16
:10166000083CA408A4001A5110BD000000E100E0ED
:101670001CED00E00349088000BF024909880029E9
:10168000FBD17047040000203CB504460D4629A15B
:1016900003C901910090002D25D1002020766846D5
:1016A0000178202000F010FD68464178212000F0EC
:1016B0000BFD68468178222000F006FD6846C1785F
:1016C000232000F001FD68460179242000F0FCFC95
:1016D00068464179252000F0F7FC684681791F2093
:1016E00000F0F2FC24E001202076684601782020FA
:1016F000FFF784FE684641782120FFF77FFE6846A9
:1017000081782220FFF77AFE6846C1782320FFF710
:1017100075FE684601792420FFF770FE684641791E
:101720002520FFF76BFE684641791F20FFF766FE14
:101730003CBD0000570000880000800010B57548CF
:10174000806901218904084372498861724873499C
:1017500088620120C86208460068912108436F49E9
:1017600008600846C068012108436C49C86016201B
:10177000002809DB00BF00BFC206D20E0121914044
:10178000674A116000BF00BF00BF05211620FFF7A8
:1017900035FF604840690121890408435D4948617B
:1017A00060480068012108435E4908605948406963
:1017B00009020843574948615A480068052149030E
:1017C000084358490860084680680F210903084308
:1017D0005449886008464068C02108435149486020
:1017E0000846006A1121090608434E490862494823
:1017F000C069C90208434749C8614B4800694A4962
:1018000008610846006909210843474908610846FC
:101810000069032109020843434908610846006939
:101820000121090408434049086108460069032171
:10183000090508433C490861084640680321C9027C
:101840008843394948600846006801210843364901
:101850000860304840690121490408432D49486126
:101860000920C0060068042108430921C906086050
:10187000084600688008800008600846C0680221A9
:1018800008430921C906C86022484069012149046A
:101890000843204948610920C0068068234908435D
:1018A0000921C9068860084600681521C902084355
:1018B0000921C90608600846006A086208460068EF
:1018C000FF21413108430921C90608601148806998
:1018D0000121090308430F49886115480068C521A3
:1018E0008900084312490860084640688914084383
:1018F0000F49486008460068402108430C490860C9
:101900000920C0068069102108430921C9068861A1
:1019100010BD0000001002403F1F000000480140C1
:1019200000E100E00004004800540040F0FF000027
:1019300000300140F0B587B09748006897490860CB
:1019400097480068FFF768F906460022954BFEF7B6
:10195000ADFE0446FEF7F0FC93490860934800682A
:101960009349086093480068FFF756F9064600223D
:101970008C4BFEF79BFE0446FEF7DEFC8E490860AA
:101980008E4800688E4908608E480068FFF744F969
:1019900006460022834BFEF789FE0446FEF7CCFC88
:1019A0008949086080480068FFF736F90446874A8D
:1019B000874BFEF77BFE06460F467B480068FFF725
:1019C0002BF932463B4601910090FEF79FFE0391B2
:1019D0000290FEF7B1FC069077480068FFF71CF90B
:1019E00004467A4A7A4BFEF761FE019100907248F4
:1019F0000068FFF711F90646019B009AFEF786FE84
:101A000003910290FEF798FC05906F480068FFF77D
:101A100003F906466D4A6E4BFEF748FE04460D4636
:101A200069480068FFF7F8F822462B4601910090BC
:101A3000FEF76CFE03910290FEF77EFC0490654970
:101A40000868FFF75DF9064654480168304600F023
:101A50008BFC0546069900F003FC04464F480168DC
:101A6000204600F08DFB4C4908605A494868FFF752
:101A700047F906464E480168304600F075FC0546B9
:101A8000059900F0EDFB044649480168204600F046
:101A900077FB464908604F498868FFF731F90646E9
:101AA00047480168304600F05FFC0546049900F0A5
:101AB000D7FB044642480168204600F061FB3F49DD
:101AC00008607F20C005069900F04EFC04463448AB
:101AD0000168204600F0C4FB3349086008460068EE
:101AE0002F4908607F20C005059900F03DFC0446A1
:101AF00030480168204600F0B3FB2F4908600846D3
:101B000000682C4908607F20C005049900F02CFC77
:101B100004462C480168204600F0A2FB2A490860D0
:101B200008460068274908602B491B48006800F0F8
:101B3000EFFB02D229481849086027491B48006872
:101B400000F0E6FB02D225481849086022491B48EC
:101B5000006800F0DDFB02D22048184908602049E7
:101B60000D48006800F052FB02D21E480A49086086
:101B70001B490E48006800F049FB02D219480B4986
:101B8000086017490D48006800F040FB02D2154874
:101B90000A49086007B0F0BD38000020140000209A
:101BA0002C0000200000E03F200000203C0000202E
:101BB00018000020300000202400002040000020F9
:101BC0001C0000203400002028000020CDCCCCCC0C
:101BD000CCCCEC3F500000200000B2420000B442E8
:101BE0000000B2C20000B4C28CB0FFF7A7FDC8204D
:101BF000FFF740FDFFF7A2FAFFF764FA0021052086
:101C0000FFF77EFA012182A0FFF731FB002183A0BC
:101C1000FFF72DFB00218348FFF736FD0A20FFF771
:101C200029FD8048007E002807D10F2000F08AF9A6
:101C300004460021FFF7D6FA06E00F20FFF742FB2B
:101C400004460021FFF7CEFA00217648FFF71CFB7F
:101C5000DDE075480088002817D000207249088010
:101C600007210A20FFF74CFA002170A0FFF7FFFAC6
:101C7000704908880988491C6E4B19800021FFF7BC
:101C800073FA00216CA0FFF7F2FA6C480088002874
:101C9000DED0002069490880624800F0F1F8FFF7C3
:101CA00049FE02210120FFF72BFA002164A0FFF773
:101CB000DEFA5C4908680021FFF756FA002161A0AE
:101CC000FFF7D5FA03210120FFF71AFA00215FA0E0
:101CD000FFF7CDFA534948680021FFF745FA002184
:101CE00058A0FFF7C4FA04210120FFF709FA0021E8
:101CF00057A0FFF7BCFA4B4988680021FFF734FA78
:101D0000002150A0FFF7B3FA02213220FFF7F8F9C3
:101D1000002150A0FFF7ABFA4F480068FEF7A6FF7E
:101D200004460021FFF720FA002143A0FFF79FFAA5
:101D300003213220FFF7E4F9002148A0FFF797FACA
:101D400047480068FEF792FF04460021FFF70CFAAF
:101D5000002139A0FFF78BFA04213220FFF7D0F9D8
:101D6000002140A0FFF783FA3F480068FEF77EFF9E
:101D700004460021FFF7F8F900212FA0FFF777FABA
:101D8000284989684943394A51430846FEF739FFD3
:101D900003910290234949684943344A5143084614
:101DA000FEF72FFF04460D461E49096849432F4A96
:101DB00051430846FEF725FF064622462B46FEF70E
:101DC00075FC01910090039B029AFEF76FFC0022C4
:101DD000274B05910490FEF799FC0791069000F0BF
:101DE0004FF909910890FEF7B5FE0A9006210120EF
:101DF000FFF786F900211FA0FFF739FA00210A98A2
:101E0000FFF7B2F900210CA0FFF731FA00BF20E77D
:101E100054455354204C49533344480020494420EE
:101E200030780000500000200C000020436E742029
:101E30000000000010000020202020000A000020E8
:101E4000615820002020202000000000615920005F
:101E5000615A200058632000380000205963200098
:101E60003C0000205A6320004000002064810000F4
:101E70000000084053554D4D203D2020000000003B
:101E8000FEB50446207E00282AD100BF272000F09E
:101E900059F8082108400028F8D0282000F052F80E
:101EA00069460870292000F04DF8014668464170E7
:101EB0002A2000F047F80146684681702B2000F088
:101EC00041F801466846C1702C2000F03BF80146FD
:101ED000684601712D2000F035F8694648710CE024
:101EE00000BF2720FFF7EEF9082108400028F8D0AE
:101EF000062269462820FFF72FFA6846407801023B
:101F00006846007801430DB26846C0780102684611
:101F1000807801430EB2684640790002694609792B
:101F2000084307B2B6212846FEF760F92060B621C3
:101F30003046FEF75BF96060B6213846FEF756F989
:101F4000A060FEBD014600BF484A92690123DB0341
:101F50001A40002AF8D1454A5268454B1A40434B73
:101F60005A601A465268434B1A43404B5A6000BFAE
:101F70003E4A926940231A40002AF9D100BF3B4AE9
:101F80009269D207D20F002AF9D0384A916200BF75
:101F9000364A926940231A40002AF9D100BF334AD9
:101FA0009269D207D20F002AF9D0304A5268012331
:101FB0009B031A432D4B5A6000BF2C4A9269202381
:101FC0001A40002AF9D0294AD2691A43274BDA610C
:101FD00000BF264A92690123DB031A40002AF8D188
:101FE000224A5268244B1A40204B5A601A465268C3
:101FF0001B151A431D4B5A601A4652681F4B1A4351
:102000001A4B5A6000BF194A926940231A40002AAD
:10201000F9D100BF154A926904231A40002AF9D069
:10202000124A526AD0B200BF104A9269D207D20F48
:10203000002AF9D00D4A526801239B031A430B4B27
:102040005A6000BF094A926920231A40002AF9D039
:10205000064AD2691A43054BDA611A4652682123AF
:102060009B029A43014B5A607047000000540040A5
:1020700000F800FF3220800000FC00FF3220010049
:10208000F8B506460C46FEF751FE051E0F4600D079
:102090000120014349000B484908411AC90F0DD0DE
:1020A000002E01D0012100E000210C43610049080D
:1020B000401AC00F02D10120FEF732FE28463946F1
:1020C000F8BD00000000F07F00BF2A4A926901239A
:1020D000DB031A40002AF8D1264A5268264B1A40E0
:1020E000244B5A601A465268244B1A43214B5A60BB
:1020F00000BF204A926940231A40002AF9D100BF4C
:102100001C4A9269D207D20F002AF9D0194A90626C
:1021100000BF184A926940231A40002AF9D100BF33
:10212000144A9269D207D20F002AF9D0114A91625B
:1021300000BF104A926940231A40002AF9D100BF1B
:102140000C4A9269D207D20F002AF9D0094A526884
:1021500001239B031A43074B5A6000BF054A92694B
:1021600020231A40002AF9D0024AD2691A43014BAF
:10217000DA6170470054004000F800FF3220800010
:1021800070B501250400ED074C4020D4441A01D25B
:10219000001B0919C60D4B00F2B2FF2A29D01B0EF5
:1021A0002CD000020C02D31A2C43DC402843051922
:1021B00010D2280A02D3401C6D0611D0761EF605F7
:1021C0008019FF2A00DA70BDC00DC00570BD6940DE
:1021D00000F0D0F801200543C541521C761CE8E709
:1021E00064089C40C90161408900E7D10124A043F3
:1021F000E4E71B0E440200D0034870BD002AFCD166
:10220000C00FC00770BD00BF0000C07F01230200E7
:10221000DB050A430DD4DA4203D49A4207D488423C
:102220007047D84214D4D94212D4884270478042B1
:102230007047DA4203D59A42F9D5814270475B0074
:102240004200DA4204D24A00DA4201D281427047A7
:1022500010B5024AFEF7EAFD10BD00BF09001604E2
:1022600070B5420064414B005C41120E39D01B0E28
:1022700038D0FF2A3CD0FF2B3AD040024902400A16
:10228000490A060045184E43000A090AD218484375
:10229000ED017F3A0104731A4019190C4318990F84
:1022A00004D001215B0849075B1A521CD80904D3EA
:1022B000401CF50301D19D0607D0FF2A08D2D505A1
:1022C00006D0E4072043401970BD0125A843F4E778
:1022D000002A01DCE00770BD2402FF202043C00576
:1022E00070BD1B0EFF2A03D0FF2B01D0E00770BD8D
:1022F000FF2645003606B54206D84D00B54203D844
:10230000D218FF2A00D0E7E7004870BD0000C07F68
:1023100001230A00DB0502430DD4DA4203D49A42BA
:1023200007D481427047D94214D4D84212D4814292
:10233000704789427047DA4203D59A42F9D58842FC
:1023400070475B004A00DA4204D24200DA4201D20E
:10235000884270474840414010B5024A4840FEF765
:1023600065FD10BD0900160470B501250400ED07D8
:102370004C4022D4441A02D26C40001B0919C60DED
:102380004B00F2B2FF2A4BD01B0E50D000020C02C1
:10239000D31A2C43DC40A843051B05D5AD0019D347
:1023A0006D08761E521E37D0F605280A01D2801914
:1023B00070BD70416D0603D070BD6940FFF7E6FE49
:1023C0009C4009026140490001D0401E70BD0124BB
:1023D000A04370BD6D081DD001202B0C01D12D0430
:1023E00010302B0E01D12D0208302B0F01D12D0101
:1023F000001DAB0F01D1AD00801CEB0F01D16D00B2
:10240000401C6D00361A121A680AF5054019012A97
:1024100002DB70BD002070BDC036300AC00770BD41
:102420001B0E440201D1FF2B00D1024870BD002ACF
:10243000F0D070BD0000C07FA83FD30040A1C8DA33
:102440001281F0A4A6D5808D14AF0000000000001A
:10245000002F00000007000700147F147F14242AB7
:102460007F2A12C4C810264636495522500005035B
:102470000000001C2241000041221C0014083E08FC
:102480001408083E0808000050300010101010100A
:10249000006060000020100804023E5149453E00E3
:1024A000427F400042615149462141454B31181459
:1024B000127F1027454545393C4A49493001710989
:1024C00005033649494936064949291E0036360072
:1024D000000056360000081422410014141414148D
:1024E00000412214080201510906324959513E7E29
:1024F0001111117E7F494949363E414141227F41B8
:1025000041221C7F494949417F090909013E41494E
:10251000497A7F0808087F00417F41002040413F01
:10252000017F081422417F404040407F020C027F1F
:102530007F0408107F3E4141413E7F090909063E64
:102540004151215E7F091929464649494931010116
:102550007F01013F4040403F1F2040201F3F403847
:10256000403F631408146307087008076151494528
:1025700043007F414100552A552A550041417F00C3
:1025800004020102044040404040000102040020D7
:10259000545454787F4844443838444444203844A0
:1025A00044487F3854545418087E0901020C525292
:1025B000523E7F0804047800447D40002040443DA2
:1025C000007F1028440000417F40007C04180478FC
:1025D0007C0804047838444444387C1414140808F3
:1025E0001414187C7C080404084854545420043FF4
:1025F0004440203C4040207C1C2040201C3C40307B
:10260000403C44281028440C5050503C4464544CE6
:1026100044000836410000007F00000041360800F9
:102620000402040804000000000000000000000094
:10263000000000000000000000000000000000009A
:10264000000000000000000000000000000000008A
:10265000000000000000000000000000000000007A
:10266000000000000000000000000000000000006A
:10267000000000000000000000000000000000005A
:10268000000000000000000000000000000000004A
:10269000000000000000000000000000000000003A
:1026A000000000000000000000000000000000002A
:1026B000000000000000000000000000000000001A
:1026C000000000000000000000000000000000000A
:1026D00000000000000000000000000000000000FA
:1026E00000000000000000000000360000000000B4
:1026F0000000000000000000000000003E494949C1
:1027000022000000000000000000000000000000A7
:10271000000000000044457C45440000000000002B
:102720000000000000417F410000447D40000000A7
:102730000000000000000000000000000000000099
:102740000000000000000000000000003854442891
:102750000000000000000000000000000000000079
:1027600000000000004A487A40407E1111117E7F2F
:10277000494949317F494949367F01010103603E9A
:1027800021217F7F4949494163147F1463224949CC
:1027900049367F1008047F7F1009047F7F081422C8
:1027A000417C0201017F7F020C027F7F0808087FC5
:1027B0003E4141413E7F0101017F7F090909063EFB
:1027C0004141412201017F0101074848483F1C2245
:1027D0007F221C63140814633F20203F6007080811
:1027E000087F7F407F407F3F203F207F017F484818
:1027F000307F4848307F7F48484830224949493E29
:102800007F083E413E462919097F20545454787868
:10281000545454207C545454287C040404006038DC
:1028200024386038545454186C107C106C2844546C
:1028300054283C4040207C3C4042207C7C101028A6
:1028400044601008047C7C0810087C7C1010107C0C
:1028500038444444387C0404047C7C141414083840
:102860004444442004047C04040C5050503C18247C
:102870007C241844281028443C20203C600C101074
:10288000107C7C407C407C3C203C207C047C484884
:10289000307C4830007C7C484848302844545438C8
:1028A0007C10384438582424247C80807F7E7D7CB2
:1028B0007B7A7978777676757473727171706F6ED2
:1028C0006E6D6C6C6B6A6A6968686766666564647D
:1028D000636362616160605F5F5E5E5D5D5C5C5B07
:1028E0005B5A5A5959585857575656555555545476
:1028F000535352525251515050504F4F4F4E4E4DD4
:102900004D4D4C4C4C4B4B4B4A4A4A49494948481F
:10291000484747474746464645454544444444435F
:102920004343434242424241414100004C29000896
:102930000000002050000000040100089C2900084D
:102940005000002080060000200100080000000068
:102950000000000000000000000000000000000077
:102960000000000000000000000000000000000067
:1029700000000000000000000000803F0000803FD9
:102980000000803F00000000000000000000000088
:0C2990000000000000000000000000003B
:040000050800016589
:00000001FF
